{
  "_format": "hh-sol-artifact-1",
  "contractName": "BankApp",
  "sourceName": "src/Contracts/BankApp.sol",
  "abi": [
    {
      "inputs": [],
      "name": "accountBalance",
      "outputs": [
        {
          "internalType": "uint256",
          "name": "",
          "type": "uint256"
        }
      ],
      "stateMutability": "view",
      "type": "function"
    },
    {
      "inputs": [],
      "name": "accountExists",
      "outputs": [
        {
          "internalType": "bool",
          "name": "",
          "type": "bool"
        }
      ],
      "stateMutability": "view",
      "type": "function"
    },
    {
      "inputs": [],
      "name": "createAcc",
      "outputs": [
        {
          "internalType": "bool",
          "name": "",
          "type": "bool"
        }
      ],
      "stateMutability": "nonpayable",
      "type": "function"
    },
    {
      "inputs": [],
      "name": "deposit",
      "outputs": [],
      "stateMutability": "payable",
      "type": "function"
    },
    {
      "inputs": [
        {
          "internalType": "address payable",
          "name": "reciever",
          "type": "address"
        },
        {
          "internalType": "uint256",
          "name": "transferAmount",
          "type": "uint256"
        }
      ],
      "name": "transferEther",
      "outputs": [],
      "stateMutability": "payable",
      "type": "function"
    },
    {
      "inputs": [
        {
          "internalType": "uint256",
          "name": "withdrawAmount",
          "type": "uint256"
        }
      ],
      "name": "withdraw",
      "outputs": [],
      "stateMutability": "payable",
      "type": "function"
    }
  ],
  "bytecode": "0x608060405234801561001057600080fd5b50610910806100206000396000f3fe6080604052600436106100555760003560e01c806305b1137b1461005a5780632e1a7d4d14610076578063b0a1c1c414610092578063ce4b2ad3146100bd578063d0e30db0146100e8578063d33921da146100f2575b600080fd5b610074600480360381019061006f91906106f9565b61011d565b005b610090600480360381019061008b9190610739565b610311565b005b34801561009e57600080fd5b506100a7610446565b6040516100b49190610775565b60405180910390f35b3480156100c957600080fd5b506100d261048c565b6040516100df91906107ab565b60405180910390f35b6100f06104e0565b005b3480156100fe57600080fd5b5061010761056e565b60405161011491906107ab565b60405180910390f35b60011515600160008473ffffffffffffffffffffffffffffffffffffffff1673ffffffffffffffffffffffffffffffffffffffff16815260200190815260200160002060009054906101000a900460ff1615151480156101cd575060011515600160003373ffffffffffffffffffffffffffffffffffffffff1673ffffffffffffffffffffffffffffffffffffffff16815260200190815260200160002060009054906101000a900460ff161515145b80156101d95750600081115b6101e257600080fd5b6000803373ffffffffffffffffffffffffffffffffffffffff1673ffffffffffffffffffffffffffffffffffffffff16815260200190815260200160002054811061022c57600080fd5b806000803373ffffffffffffffffffffffffffffffffffffffff1673ffffffffffffffffffffffffffffffffffffffff1681526020019081526020016000205461027691906107f5565b6000803373ffffffffffffffffffffffffffffffffffffffff1673ffffffffffffffffffffffffffffffffffffffff16815260200190815260200160002081905550806000808473ffffffffffffffffffffffffffffffffffffffff1673ffffffffffffffffffffffffffffffffffffffff16815260200190815260200160002060008282546103069190610829565b925050819055505050565b60011515600160003373ffffffffffffffffffffffffffffffffffffffff1673ffffffffffffffffffffffffffffffffffffffff16815260200190815260200160002060009054906101000a900460ff1615151480156103ae57506000803373ffffffffffffffffffffffffffffffffffffffff1673ffffffffffffffffffffffffffffffffffffffff1681526020019081526020016000205481105b6103b757600080fd5b806000803373ffffffffffffffffffffffffffffffffffffffff1673ffffffffffffffffffffffffffffffffffffffff1681526020019081526020016000205461040191906107f5565b6000803373ffffffffffffffffffffffffffffffffffffffff1673ffffffffffffffffffffffffffffffffffffffff1681526020019081526020016000208190555050565b60008060003373ffffffffffffffffffffffffffffffffffffffff1673ffffffffffffffffffffffffffffffffffffffff16815260200190815260200160002054905090565b6000600160003373ffffffffffffffffffffffffffffffffffffffff1673ffffffffffffffffffffffffffffffffffffffff16815260200190815260200160002060009054906101000a900460ff16905090565b346000803373ffffffffffffffffffffffffffffffffffffffff1673ffffffffffffffffffffffffffffffffffffffff1681526020019081526020016000205461052a9190610829565b6000803373ffffffffffffffffffffffffffffffffffffffff1673ffffffffffffffffffffffffffffffffffffffff16815260200190815260200160002081905550565b6000801515600160003373ffffffffffffffffffffffffffffffffffffffff1673ffffffffffffffffffffffffffffffffffffffff16815260200190815260200160002060009054906101000a900460ff16151514610602576040517f08c379a00000000000000000000000000000000000000000000000000000000081526004016105f9906108ba565b60405180910390fd5b60018060003373ffffffffffffffffffffffffffffffffffffffff1673ffffffffffffffffffffffffffffffffffffffff16815260200190815260200160002060006101000a81548160ff0219169083151502179055506001905090565b600080fd5b600073ffffffffffffffffffffffffffffffffffffffff82169050919050565b600061069082610665565b9050919050565b6106a081610685565b81146106ab57600080fd5b50565b6000813590506106bd81610697565b92915050565b6000819050919050565b6106d6816106c3565b81146106e157600080fd5b50565b6000813590506106f3816106cd565b92915050565b600080604083850312156107105761070f610660565b5b600061071e858286016106ae565b925050602061072f858286016106e4565b9150509250929050565b60006020828403121561074f5761074e610660565b5b600061075d848285016106e4565b91505092915050565b61076f816106c3565b82525050565b600060208201905061078a6000830184610766565b92915050565b60008115159050919050565b6107a581610790565b82525050565b60006020820190506107c0600083018461079c565b92915050565b7f4e487b7100000000000000000000000000000000000000000000000000000000600052601160045260246000fd5b6000610800826106c3565b915061080b836106c3565b9250828203905081811115610823576108226107c6565b5b92915050565b6000610834826106c3565b915061083f836106c3565b9250828201905080821115610857576108566107c6565b5b92915050565b600082825260208201905092915050565b7f5573657220616c72656164792045786973747300000000000000000000000000600082015250565b60006108a460138361085d565b91506108af8261086e565b602082019050919050565b600060208201905081810360008301526108d381610897565b905091905056fea2646970667358221220078ded6a2d7ba6a45aa57ca7172d97f64151a2d8c561b16dba022a6f7ec1846d64736f6c63430008120033",
  "linkReferences": {},
  "deployedLinkReferences": {}
}